001:H6687     QEB 00023320190526001201905270100Colin                                   Temple                                  Rolk ST                       Dowfran Lane                  Ky120Re                                                                GB07770508022                                     190526050000UniteI20190416T0000000000000000000000000000000013275510026012183INR20600000000000000RB3     BusinessRB3     000AX3791079860570040124                     00001
002:   3932201904189102    000137910798605700401/24                    -00000708000000011
002:   6481201905269004    0001Deposit Transfer at C/I                 000000708000000021
002:   6482201905269004    0001Deposit Transfer at C/I                 -00000708000000030
002:   7320201905269999    0001Accommodation                           -00000600000000041
002:   7321201905269999    0001Accommodation Charges                   000000600000000050
002:   7322201905261001    0001Slab 1 Room Accomodation                000000560000000061
002:   7323201905267302    0001CGST - 9 % On Accommodation             000000054000000070
002:   7324201905267303    0001SGST - 9 % On Accommodation             000000054000000080
002:   7325201905267304    0001CGST -14 %On Accommodation              000000000000000091
002:   7326201905267305    0001SGST - 14 % On Accommodation            000000000000000101
002:   7327201905262040    0001The Square Breakfast Package            000000040000000111
003:00023323:59:0000000000000000000000000132755100011010005
001:H6687     QEB 00022320190526001201905270100Stuart                                  Paver                                   Elvington Hall                Main 57                       York                                                                   GB+44 7590685632                                  190526050000UniteI20190416T0000000000000000000000000000000013275610026012184INR20600000000000000RB3     BusinessRB3     000AX3791079860570040124                     00002
002:   3931201904189102    000137910798605700401/24                    -00000708000000011
002:   6276201905269004    0001Deposit Transfer at C/I                 000000708000000021
002:   6277201905269004    0001Deposit Transfer at C/I                 -00000708000000030
002:   7276201905269999    0001Accommodation                           -00000600000000041
002:   7277201905269999    0001Accommodation Charges                   000000600000000050
002:   7278201905261001    0001Slab 1 Room Accomodation                000000560000000061
002:   7279201905267302    0001CGST - 9 % On Accommodation             000000054000000070
002:   7280201905267303    0001SGST - 9 % On Accommodation             000000054000000080
002:   7281201905267304    0001CGST -14 %On Accommodation              000000000000000091
002:   7282201905267305    0001SGST - 14 % On Accommodation            000000000000000101
002:   7283201905262040    0001The Square Breakfast Package            000000040000000111
003:00022323:39:0000000000000000000000000132756100011010005
001:H6687     QEB 00047020190523004201905270100David                                   Lee                                     5858 Ridnegate Br             Chino Hills                                                 Rancho Cucamonga              CA91701    US91 7824800317                                   190523050000UniteI20190419T0445278360000000000000000000000000000010026035686INR20625000000000000RA1     BusinessRA1     000VA                                        00003
002:   6568201905234005    0001Internet Access                         000000000000000011
003:00047021:32:0000000000000000000000000000000100001010005
001:H6687     QEB 00047020190523004201905270100David                                   Lee                                     5858 Ridnegate Br             Chino Hills                                                 Rancho Cucamonga              CA91701    US91 7824800317                                   190523050000UniteI20190419T0445278360000000000000000000000013282920026035686INR20625000000000000RA1     BusinessRA1     000VA41472022809785761119                    00004
002:   6678201905232220    0001IRD Dinner Food                         000000173000000010
002:   6679201905237306    0001CGST - 9 %  IRD                         000000015570000020
002:   6680201905237307    0001SGST - 9 % IRD                          000000015570000030
002:   8770201905231001    0001Accommodation Charges                   000000900000000040
002:   8771201905237302    0001CGST - 9 % On Accommodation             000000000000000051
002:   8772201905237303    0001SGST - 9 % On Accommodation             000000000000000061
002:   8773201905237304    0001CGST -14 %On Accommodation              000000126000000070
002:   8774201905237305    0001SGST - 14 % On Accommodation            000000126000000080
002:   2982201905245001    0001Laundry                                 000000184000000090
002:   2983201905247345    0001CGST - 9 % Laundry                      000000016560000100
002:   2984201905247346    0001SGST - 9 %  Laundry                     000000016560000110
002:   5966201905241001    0001Accommodation Charges                   000000775000000120
002:   5967201905247302    0001CGST - 9 % On Accommodation             000000000000000131
002:   5968201905247303    0001SGST - 9 % On Accommodation             000000000000000141
002:   5969201905247304    0001CGST -14 %On Accommodation              000000108500000150
002:   5970201905247305    0001SGST - 14 % On Accommodation            000000108500000160
002:   7728201905252200    0001IRD Lunch Food                          000000115000000170
002:   7729201905257306    0001CGST - 9 %  IRD                         000000010350000180
002:   7730201905257307    0001SGST - 9 % IRD                          000000010350000190
002:   7735201905252200    0001IRD Lunch Food                          000000018000000200
002:   7736201905257306    0001CGST - 9 %  IRD                         000000001620000210
002:   7737201905257307    0001SGST - 9 % IRD                          000000001620000220
002:   1523201905251001    0001Accommodation Charges                   000000900000000230
002:   1524201905257302    0001CGST - 9 % On Accommodation             000000000000000241
002:   1525201905257303    0001SGST - 9 % On Accommodation             000000000000000251
002:   1526201905257304    0001CGST -14 %On Accommodation              000000126000000260
002:   1527201905257305    0001SGST - 14 % On Accommodation            000000126000000270
002:   2680201905262110    0001IRD Breakfast Food                      000000093000000280
002:   2681201905267306    0001CGST - 9 %  IRD                         000000008370000290
002:   2682201905267307    0001SGST - 9 % IRD                          000000008370000300
002:   5708201905262200    0001IRD Lunch Food                          000000095500000310
002:   5709201905267306    0001CGST - 9 %  IRD                         000000008595000320
002:   5710201905267307    0001SGST - 9 % IRD                          000000008595000330
002:   8126201905261001    0001Accommodation Charges                   000000625000000340
002:   8127201905267302    0001CGST - 9 % On Accommodation             000000056250000350
002:   8128201905267303    0001SGST - 9 % On Accommodation             000000056250000360
002:   8129201905267304    0001CGST -14 %On Accommodation              000000000000000371
002:   8130201905267305    0001SGST - 14 % On Accommodation            000000000000000381
002:   0424201905272110    0001IRD Breakfast Food                      000000093000000390
002:   0425201905277306    0001CGST - 9 %  IRD                         000000008370000400
002:   0426201905277307    0001SGST - 9 % IRD                          000000008370000410
002:   3415201905272200    0001IRD Lunch Food                          000000138000000420
002:   3416201905277306    0001CGST - 9 %  IRD                         000000012420000430
002:   3417201905277307    0001SGST - 9 % IRD                          000000012420000440
002:   5400201905271009    0001Slab1 Late Departure                    000000775000000450
002:   5401201905277302    0001CGST - 9 % On Accommodation             000000000000000461
002:   5402201905277303    0001SGST - 9 % On Accommodation             000000000000000471
002:   5403201905277304    0001CGST -14 %On Accommodation              000000108500000480
002:   5404201905277305    0001SGST - 14 % On Accommodation            000000108500000490
002:   5405201905279100    0001414720228097857611/19                   -00006098710000500
003:00047021:32:0000000000000000000000000132829200050010005
001:H6687     QEB 00042120190523004201905270100Robert                                  Marinelli                               10 B Chemin De La Canciellere,                                                                                                     CH+41792603244                                    HHTSCGTK0000H6687I20190425C0000000000000000000000000000000000000010026108175INR20800000000000000C10     55R     C10     000VA                                        00005
002:   6410201905234005    0001Internet Access                         000000000000000011
003:00042119:54:0000000000000000000000000000000100001010005
001:H6687     QEB 00042120190523004201905270100Robert                                  Marinelli                               10 B Chemin De La Canciellere,                                                                                                     CH+41792603244                                    HHTSCGTK0000H6687I20190425C0000000000000000000000000000000013273120026108175INR20800000000000000C10     55R     C10     000VA48944690092232540121                    00006
002:   8445201905239999    0001Accommodation                           -00000800000000011
002:   8446201905239999    0001Accommodation Charge                    000000800000000020
002:   8447201905231001    0001Slab 1 Room Accomodation                000000700000000031
002:   8448201905237302    0001CGST - 9 % On Accommodation             000000000000000041
002:   8449201905237303    0001SGST - 9 % On Accommodation             000000000000000051
002:   8450201905237304    0001CGST -14 %On Accommodation              000000112000000060
002:   8451201905237305    0001SGST - 14 % On Accommodation            000000112000000070
002:   8452201905232040    0001The Square Breakfast Package            000000040000000081
002:   8453201905232042    0001The Square Dinner Package               000000060000000091
002:   5652201905249999    0001Accommodation                           -00000800000000101
002:   5653201905249999    0001Accommodation Charge                    000000800000000110
002:   5654201905241001    0001Slab 1 Room Accomodation                000000700000000121
002:   5655201905247302    0001CGST - 9 % On Accommodation             000000000000000131
002:   5656201905247303    0001SGST - 9 % On Accommodation             000000000000000141
002:   5657201905247304    0001CGST -14 %On Accommodation              000000112000000150
002:   5658201905247305    0001SGST - 14 % On Accommodation            000000112000000160
002:   5659201905242040    0001The Square Breakfast Package            000000040000000171
002:   5660201905242042    0001The Square Dinner Package               000000060000000181
002:   1211201905259999    0001Accommodation                           -00000800000000191
002:   1212201905259999    0001Accommodation Charge                    000000800000000200
002:   1213201905251001    0001Slab 1 Room Accomodation                000000700000000211
002:   1214201905257302    0001CGST - 9 % On Accommodation             000000000000000221
002:   1215201905257303    0001SGST - 9 % On Accommodation             000000000000000231
002:   1216201905257304    0001CGST -14 %On Accommodation              000000112000000240
002:   1217201905257305    0001SGST - 14 % On Accommodation            000000112000000250
002:   1218201905252040    0001The Square Breakfast Package            000000040000000261
002:   1219201905252042    0001The Square Dinner Package               000000060000000271
002:   7804201905269999    0001Accommodation                           -00000800000000281
002:   7805201905269999    0001Accommodation Charge                    000000800000000290
002:   7806201905261001    0001Slab 1 Room Accomodation                000000700000000301
002:   7807201905267302    0001CGST - 9 % On Accommodation             000000000000000311
002:   7808201905267303    0001SGST - 9 % On Accommodation             000000000000000321
002:   7809201905267304    0001CGST -14 %On Accommodation              000000112000000330
002:   7810201905267305    0001SGST - 14 % On Accommodation            000000112000000340
002:   7811201905262040    0001The Square Breakfast Package            000000040000000351
002:   7812201905262042    0001The Square Dinner Package               000000060000000361
002:   9694201905279100    0001489446900922325401/21                   -00004096000000370
003:00042119:54:0000000000000000000000000132731200037010005
001:H6687     QEB 00037020190526001201905270100Nicholas William James                  Avery                                   4 Hospital Rd Colchelter      C033HJ                                                                                               GB8897588199                                      HJLSDXTJ0000UniteI20190508T0000000000000000000000000000000013274910026577675INR20775000000000000RB1     BusinessRB1     000MC55667729487927901021                    00007
002:   5403201905109001    0001Check                                   -00000992000000011
002:   5743201905269004    0001Deposit Transfer at C/I                 000000992000000021
002:   5746201905264005    0001Internet Access                         000000000000000031
002:   5773201905262706    0001Bar Dinner Liquor                       000000067500000040
002:   6074201905262400    0001The Square Dinner Food                  000000139900000050
002:   6075201905267308    0001CGST - 9 % Square                       000000012591000060
002:   6076201905267309    0001SGST - 9 % Square                       000000012591000070
002:   0445201905279104    0001556677294879279010/21                   -00000232582000080
003:00037017:55:0000000000000000000000000132749100008010005
001:H6687     QEB 00037020190526001201905270100Nicholas William James                  Avery                                   4 Hospital Rd Colchelter      C033HJ                                                                                               GB8897588199                                      HJLSDXTJ0000UniteI20190508T0000000000000000000000000000000013275020026577675INR20775000000000000RB1     BusinessRB1     000MC                                        00008
002:   5744201905269004    0001Deposit Transfer at C/I                 -00000992000000010
002:   7768201905269999    0001Accommodation                           -00000775000000021
002:   7769201905269999    0001Accommodation Charge                    000000775000000030
002:   7770201905261001    0001Slab 1 Room Accomodation                000000735000000041
002:   7771201905267302    0001CGST - 9 % On Accommodation             000000000000000051
002:   7772201905267303    0001SGST - 9 % On Accommodation             000000000000000061
002:   7773201905267304    0001CGST -14 %On Accommodation              000000108500000070
002:   7774201905267305    0001SGST - 14 % On Accommodation            000000108500000080
002:   7775201905262040    0001The Square Breakfast Package            000000040000000091
003:00037017:55:0000000000000000000000000132750200009010005
001:H6687     QEBP00022420190526001201905270100K                                       Subramanian                                                                                                                                                                IN+91 9820801956                                  HJPSCVPX0000H6687I20190511T0000000000000000000000000000000000000010026647176INR20875000000000000RB1     55R     RB1     000CA                                        00009
002:   6203201905264005    0001Internet Access                         000000000000000011
003:00022420:43:0000000000000000000000000000000100001010005
001:H6687     QEBP00022420190526001201905270100K                                       Subramanian                                                                                                                                                                IN+91 9820801956                                  HJPSCVPX0000H6687I20190511T0000000000000000000000000000000013283020026647176INR20875000000000000RB1     55R     RB1     000CA                                        00010
002:   7284201905269999    0001Accommodation                           -00000875000000011
002:   7285201905269999    0001Accommodation Charge                    000000875000000020
002:   7286201905261001    0001Slab 1 Room Accomodation                000000835000000031
002:   7287201905267302    0001CGST - 9 % On Accommodation             000000000000000041
002:   7288201905267303    0001SGST - 9 % On Accommodation             000000000000000051
002:   7289201905267304    0001CGST -14 %On Accommodation              000000122500000060
002:   7290201905267305    0001SGST - 14 % On Accommodation            000000122500000070
002:   7291201905262040    0001The Square Breakfast Package            000000040000000081
002:   0659201905269004    0001Deposit Transfer at C/I                 -00001120000000090
003:00022420:43:0000000000000000000000000132830200009010005
001:H6687     QEBP00022420190526001201905270100K                                       Subramanian                                                                                                                                                                IN+91 9820801956                                  HJPSCVPX0000H6687I20190511T0000000000000000000000000000000013283130026647176INR20875000000000000RB1     55R     RB1     000CA                                        00011
002:   6157201905262400    0001The Square Dinner Food                  000000559600000010
002:   6158201905267308    0001CGST - 9 % Square                       000000050364000020
002:   6159201905267309    0001SGST - 9 % Square                       000000050364000030
002:   0662201905278100    0001Balance Transfer Credit                 000000141600000040
002:   5408201905278100    0001Balance Transfer Credit                 -00000801928000050
003:00022420:43:0000000000000000000000000132831300005010005
001:H6687     QEB 00024120190526001201905270200S                                       Paramasivan                             85 Varsova Venus Chs Ltd S V PPlot No 6 , Nr Mahada Tele PhoMumbai                        Mumbai                        MH400053   IN91 9820327071                                   HJPSCVPX0000H6687I20190511T0000000000000000000000000000000000000010026647177INR20875000000000000RB1     55R     RB1     000MC53690773583182871224                    00012
002:   4658201905239001    0001Check                                   -00001000000000011
002:   2705201905269104    0001536907735831828712/24                   -00001240000000021
002:   5971201905269004    0001Deposit Transfer at C/I                 000001000000000031
002:   5973201905269004    0001Deposit Transfer at C/I                 000001240000000041
002:   6006201905264005    0001Internet Access                         000000000000000051
003:00024120:46:0000000000000000000000000000000100005010005
001:H6687     QEB 00024120190526001201905270200S                                       Paramasivan                             85 Varsova Venus Chs Ltd S V PPlot No 6 , Nr Mahada Tele PhoMumbai                        Mumbai                        MH400053   IN91 9820327071                                   HJPSCVPX0000H6687I20190511T0000000000000000000000000000000013275820026647177INR20875000000000000RB1     55R     RB1     000MC                                        00013
002:   5972201905269004    0001Deposit Transfer at C/I                 -00001000000000010
002:   7351201905269999    0001Accommodation                           -00000875000000021
002:   7352201905269999    0001Accommodation Charge                    000000875000000030
002:   7353201905261001    0001Slab 1 Room Accomodation                000000795000000041
002:   7354201905267302    0001CGST - 9 % On Accommodation             000000000000000051
002:   7355201905267303    0001SGST - 9 % On Accommodation             000000000000000061
002:   7356201905267304    0001CGST -14 %On Accommodation              000000122500000070
002:   7357201905267305    0001SGST - 14 % On Accommodation            000000122500000080
002:   7358201905262040    0001The Square Breakfast Package            000000080000000091
002:   0660201905269004    0001Deposit Transfer at C/I                 -00000120000000100
003:00024120:46:0000000000000000000000000132758200010010005
001:H6687     QEB 00024120190526001201905270200S                                       Paramasivan                             85 Varsova Venus Chs Ltd S V PPlot No 6 , Nr Mahada Tele PhoMumbai                        Mumbai                        MH400053   IN91 9820327071                                   HJPSCVPX0000H6687I20190511T0000000000000000000000000000000013275730026647177INR20875000000000000RB1     55R     RB1     000MC                                        00014
002:   9680201905272110    0001IRD Breakfast Food                      000000120000000010
002:   9681201905277306    0001CGST - 9 %  IRD                         000000010800000020
002:   9682201905277307    0001SGST - 9 % IRD                          000000010800000030
002:   0661201905278100    0001Balance Transfer Credit                 -00000141600000040
003:00024120:46:0000000000000000000000000132757300004010005
001:H6687     QEBP00046020190526001201905270101Aiyaaz                                  Hamirani                                C/343 Clover Park View Lane NoSouth Main Rd Koregaon Park   Pune Nxt To Clover Dale       Pune-Maharashtra                411001   IN+91 9822038040                                  190526050000H6687I20190513P0000000000000000000000000000000013281910026662425INR20450000000000000DSO     MAH     DSO     000VA40287488330752310522                    00015
002:   5469201905262300    0001The Square Lunch Food                   000000130625000010
002:   5470201905267308    0001CGST - 9 % Square                       000000011756000020
002:   5471201905267309    0001SGST - 9 % Square                       000000011756000030
002:   6051201905262220    0001IRD Dinner Food                         000000062500000040
002:   6052201905267306    0001CGST - 9 %  IRD                         000000005625000050
002:   6053201905267307    0001SGST - 9 % IRD                          000000005625000060
002:   8086201905261001    0001Accommodation Charge                    000000450000000070
002:   8087201905267302    0001CGST - 9 % On Accommodation             000000040500000080
002:   8088201905267303    0001SGST - 9 % On Accommodation             000000040500000090
002:   8089201905267304    0001CGST -14 %On Accommodation              000000000000000101
002:   8090201905267305    0001SGST - 14 % On Accommodation            000000000000000111
002:   0420201905272110    0001IRD Breakfast Food                      000000105000000120
002:   0421201905277306    0001CGST - 9 %  IRD                         000000009450000130
002:   0422201905277307    0001SGST - 9 % IRD                          000000009450000140
002:   4421201905279100    0001402874883307523105/22                   -00000700000000150
002:   4423201905279100    0001402874883307523105/22                   -00000182787000160
003:00046014:58:0000000000000000000000000132819100016010005
001:H6687     TWB 00046120190526001201905270100Arun                                    Bansal                                  370 , Alexendra Road          05-21                         Singapore                                                     159953   SG65 81985718                                     HJVSHBPN0000H6687120190516T0FR0180810000000000000000000000013273810026703928INR20450180000000000FLRA3   EXP     FLRA3   000MC55695100052165691220                    00016
002:   6238201905264005    0001Internet Access                         000000000000000011
002:   6285201905265218    0001Transport Charges                       000000050000000020
002:   6286201905267347    0001CGST - 6% Transportation                000000003000000030
002:   6287201905267348    0001SGST - 6 %  Transportation              000000003000000040
002:   0172201905279104    0001556951000521656912/20                   -00000056000000050
003:00046123:13:0000000000000000000000000132738100005010005
001:H6687     TWB 00046120190526001201905270100Arun                                    Bansal                                  370 , Alexendra Road          05-21                         Singapore                                                     159953   SG65 81985718                                     HJVSHBPN0000H6687120190516T0FR0180810000000000000000000000013274620026703928INR20450180000000000FLRA3   EXP     FLRA3   000MC54050639987362900522                    00017
002:   8096201905261001    0001Accommodation Charges                   000000450180000010
002:   8097201905267302    0001CGST - 9 % On Accommodation             000000040516000020
002:   8098201905267303    0001SGST - 9 % On Accommodation             000000040516000030
002:   8099201905267304    0001CGST -14 %On Accommodation              000000000000000041
002:   8100201905267305    0001SGST - 14 % On Accommodation            000000000000000051
002:   0423201905279104    0001540506399873629005/22                   -00000531212000060
003:00046123:13:0000000000000000000000000132746200006010005
001:H6687     QEB 00043920190526001201905270100Alessandro                              Donetti                                 Via Carrara M4/7              l6l47                         Genova                                                                 IT39 348018670                                            0000ItalyI20190517C0000000000000000000000000000000013277910026713927INR20750000000000000C09     BusinessC09     000VA45322000049096310520                    00018
002:   6442201905264005    0001Internet Access                         000000000000000011
002:   7896201905269999    0001Accommodation                           -00000750000000021
002:   7897201905269999    0001Accommodation Charge                    000000750000000030
002:   7898201905261001    0001Slab 1 Room Accomodation                000000710000000041
002:   7899201905267302    0001CGST - 9 % On Accommodation             000000000000000051
002:   7900201905267303    0001SGST - 9 % On Accommodation             000000000000000061
002:   7901201905267304    0001CGST -14 %On Accommodation              000000105000000070
002:   7902201905267305    0001SGST - 14 % On Accommodation            000000105000000080
002:   7903201905262040    0001The Square Breakfast Package            000000040000000091
002:   0770201905279100    0001453220000490963105/20                   -00000960000000100
003:00043923:59:0000000000000000000000000132779100010010005
001:H6687     QEB 00053820190526001201905270100Vikram                                  Jayaram                                 M 204                         BRIGADE GATEWAY               26/1 RAJKUMAR ROAD  MalleswaraBANGALORE                     KR560055   IN+919663368667                                           0000H6687I20190517C0000000000000000000000000000000013274820026715179INR20600000000000000C04     55R     C04     000CLARCI                                    00019
002:   8329201905269999    0001Accommodation                           -00000600000000011
002:   8330201905269999    0001Accommodation Charge                    000000600000000020
002:   8331201905261001    0001Slab 1 Room Accomodation                000000560000000031
002:   8332201905267302    0001CGST - 9 % On Accommodation             000000054000000040
002:   8333201905267303    0001SGST - 9 % On Accommodation             000000054000000050
002:   8334201905267304    0001CGST -14 %On Accommodation              000000000000000061
002:   8335201905267305    0001SGST - 14 % On Accommodation            000000000000000071
002:   8336201905262040    0001The Square Breakfast Package            000000040000000081
002:   0429201905279003    0001ARCICity Ledger                         -00000708000000090
003:00053823:09:0000000000000000000000000132748200009010005
001:H6687     QEB 00053920190526001201905270100Indranil                                Manna                                   Flat no  A-78 kaju Bagan      IIT Kharagpur                 Kharagpur                                                   WB         IN                                                        0000H6687I20190517C0000000000000000000000000000000000000010026715182INR20600000000000000C04     55R     C04     000CL                                        00020
002:   6409201905264005    0001Internet Access                         000000000000000011
003:00053922:48:0000000000000000000000000000000100001010005
001:H6687     QEB 00053920190526001201905270100Indranil                                Manna                                   Flat no  A-78 kaju Bagan      IIT Kharagpur                 Kharagpur                                                   WB         IN                                                        0000H6687I20190517C0000000000000000000000000000000013275320026715182INR20600000000000000C04     55R     C04     000CLARCI                                    00021
002:   8337201905269999    0001Accommodation                           -00000600000000011
002:   8338201905269999    0001Accommodation Charge                    000000600000000020
002:   8339201905261001    0001Slab 1 Room Accomodation                000000560000000031
002:   8340201905267302    0001CGST - 9 % On Accommodation             000000054000000040
002:   8341201905267303    0001SGST - 9 % On Accommodation             000000054000000050
002:   8342201905267304    0001CGST -14 %On Accommodation              000000000000000061
002:   8343201905267305    0001SGST - 14 % On Accommodation            000000000000000071
002:   8344201905262040    0001The Square Breakfast Package            000000040000000081
002:   0457201905279003    0001ARCICity Ledger                         -00000708000000090
003:00053922:48:0000000000000000000000000132753200009010005
001:H6687     QEB 00032120190526001201905270100Carlo                                   Migliardi                               Daniel Centro Combustion  Indi301 C , Delta 1 , Giga Space CVimal Nagar                   Pune                          MH411014   IT9370546022                                              0000ItalyI20190517C0000000000000000000000000000000013277310026715929INR20750000000000000C09     EmploymeC09     000MC55226050032376450222                    00022
002:   7455201905269999    0001Accommodation                           -00000750000000011
002:   7456201905269999    0001Accommodation Charge                    000000750000000020
002:   7457201905261001    0001Slab 1 Room Accomodation                000000710000000031
002:   7458201905267302    0001CGST - 9 % On Accommodation             000000000000000041
002:   7459201905267303    0001SGST - 9 % On Accommodation             000000000000000051
002:   7460201905267304    0001CGST -14 %On Accommodation              000000105000000060
002:   7461201905267305    0001SGST - 14 % On Accommodation            000000105000000070
002:   7462201905262040    0001The Square Breakfast Package            000000040000000081
002:   0427201905274005    0001Internet Access                         000000000000000091
002:   0753201905279104    0001552260500323764502/22                   -00000960000000100
003:00032123:59:0000000000000000000000000132773100010010005
001:H6687     QEB 00044120190526001201905270100Raja                                    Chowdhury                               Danieli Centro Combustion Indi301C, Delta 1, Viman Nagar                                  Pune                          MH411014   IN9607982518                                              0000H6687I20190517C0000000000000000000000000000000013277810026715930INR20750000000000000C09             C09     000MC55463702305566951221                    00023
002:   6437201905262240    0001IRD Midnight Food                       000000052500000010
002:   6438201905267306    0001CGST - 9 %  IRD                         000000004725000020
002:   6439201905267307    0001SGST - 9 % IRD                          000000004725000030
002:   0769201905279104    0001554637023055669512/21                   -00000061950000040
003:00044123:59:0000000000000000000000000132778100004010005
001:H6687     QEB 00044120190526001201905270100Raja                                    Chowdhury                               Danieli Centro Combustion Indi301C, Delta 1, Viman Nagar                                  Pune                          MH411014   IN9607982518                                              0000H6687I20190517C0000000000000000000000000000000013277720026715930INR20750000000000000C09             C09     000MC55463702305566951221                    00024
002:   7914201905269999    0001Accommodation                           -00000750000000011
002:   7915201905269999    0001Accommodation Charge                    000000750000000020
002:   7916201905261001    0001Slab 1 Room Accomodation                000000710000000031
002:   7917201905267302    0001CGST - 9 % On Accommodation             000000000000000041
002:   7918201905267303    0001SGST - 9 % On Accommodation             000000000000000051
002:   7919201905267304    0001CGST -14 %On Accommodation              000000105000000060
002:   7920201905267305    0001SGST - 14 % On Accommodation            000000105000000070
002:   7921201905262040    0001The Square Breakfast Package            000000040000000081
002:   0768201905279104    0001554637023055669512/21                   -00000960000000090
003:00044123:59:0000000000000000000000000132777200009010005
001:H6687     QEB 00033820190526001201905270200Ottukalathil                            Rajendra Babu                           Avavil                        Post Kannur                                                 Kerela                          6700008  IN9847260256                                      HJWSGVRX0000H6687320190517T0PC0290900000000000000000000000013272610026716191INR20675000000000000FLRA3   BKG     FLRA3   000RP65215307040044261223                    00025
002:   5946201905269111    0001652153070400442612/23                   -00000796500000010
002:   7549201905261001    0001Accommodation Charges                   000000675000000020
002:   7550201905267302    0001CGST - 9 % On Accommodation             000000060750000030
002:   7551201905267303    0001SGST - 9 % On Accommodation             000000060750000040
002:   7552201905267304    0001CGST -14 %On Accommodation              000000000000000051
002:   7553201905267305    0001SGST - 14 % On Accommodation            000000000000000061
003:00033820:10:0000000000000000000000000132726100006010005
001:H6687     QEBP00042420190526001201905270100Amit                                    Chander                                 1003, Sovereign Apartment     Vatika City                                                 Gurgaon                       HR122018   IN9871198799                                      HJZSDMGB0000H6687I20190519T0000000000000000000000000000000000000010026728928INR20725000000000000RB1     55R     RB1     000AX                                        00026
002:   6222201905264005    0001Internet Access                         000000000000000011
003:00042421:44:0000000000000000000000000000000100001010005
001:H6687     QEBP00042420190526001201905270100Amit                                    Chander                                 1003, Sovereign Apartment     Vatika City                                                 Gurgaon                       HR122018   IN9871198799                                      HJZSDMGB0000H6687I20190519T0000000000000000000000000000000013278220026728928INR20725000000000000RB1     55R     RB1     000AX3769329076450061019                     00027
002:   6164201905262400    0001The Square Dinner Food                  000000139900000010
002:   6165201905267308    0001CGST - 9 % Square                       000000012591000020
002:   6166201905267309    0001SGST - 9 % Square                       000000012591000030
002:   7821201905269999    0001Accommodation                           -00000725000000041
002:   7822201905269999    0001Accommodation Charge                    000000725000000050
002:   7823201905261001    0001Slab 1 Room Accomodation                000000685000000061
002:   7824201905267302    0001CGST - 9 % On Accommodation             000000065250000070
002:   7825201905267303    0001SGST - 9 % On Accommodation             000000065250000080
002:   7826201905267304    0001CGST -14 %On Accommodation              000000000000000091
002:   7827201905267305    0001SGST - 14 % On Accommodation            000000000000000101
002:   7828201905262040    0001The Square Breakfast Package            000000040000000111
002:   0907201905279102    000137693290764500610/19                    -00001020582000120
003:00042421:44:0000000000000000000000000132782200012010005
001:H6687     QEB 00013520190527000201905270100Julien                                  Belloni                                 28 rue guenard                                                                            Bordeaux                        33200    FR+33 6 32 01 55                                  HKCSJSKC0000Franc320190521T0PC0290900000000000000000000000013284110026752689INR20700000000000000FLRA1   Tourist FLRA1   000VA45567305004063940320                    00028
002:   3900201905279100    0001455673050040639403/20                   -00000826000000010
002:   6664201905271001    0001Accommodation Charges                   000000700000000020
002:   6665201905277302    0001CGST - 9 % On Accommodation             000000063000000030
002:   6666201905277303    0001SGST - 9 % On Accommodation             000000063000000040
002:   6667201905277304    0001CGST -14 %On Accommodation              000000000000000051
002:   6668201905277305    0001SGST - 14 % On Accommodation            000000000000000061
003:00013515:06:0000000000000000000000000132841100006010005
001:H6687     TWBP00031220190522005201905270100Sneha                                   Dey                                                                                                                                                                        IN                                                        0000H6687I20190522S0000000000000000000000000000000000000010026754702INR20423729000000000CRW01           CRW01   INDCL                                        00029
002:   2923201905224005    0001Internet Access                         000000000000000011
003:00031211:58:0000000000000000000000000000000100001010005
001:H6687     TWBP00031220190522005201905270100Sneha                                   Dey                                                                                                                                                                        IN                                                        0000H6687I20190522S0000000000000000000000000000000013280820026754702INR20423729000000000CRW01           CRW01   INDCLInterGlobe Aviation Limited("IndiGo")   00030
002:   8195201905229999    0001Accommodation                           -00000423729000011
002:   8196201905229999    0001Accommodation Charge                    000000423729000020
002:   8197201905221001    0001Slab 1 Room Accomodation                000000423729000031
002:   8198201905227302    0001CGST - 9 % On Accommodation             000000038136000040
002:   8199201905227303    0001SGST - 9 % On Accommodation             000000038136000050
002:   8200201905227304    0001CGST -14 %On Accommodation              000000000000000061
002:   8201201905227305    0001SGST - 14 % On Accommodation            000000000000000071
002:   8202201905222040    0001The Square Breakfast Package            000000000000000081
002:   8203201905222042    0001The Square Dinner Package               000000000000000091
002:   8204201905222041    0001The Square Lunch Package                000000000000000101
002:   7882201905239999    0001Accommodation                           -00000423729000111
002:   7883201905239999    0001Accommodation Charge                    000000423729000120
002:   7884201905231001    0001Slab 1 Room Accomodation                000000423729000131
002:   7885201905237302    0001CGST - 9 % On Accommodation             000000038136000140
002:   7886201905237303    0001SGST - 9 % On Accommodation             000000038136000150
002:   7887201905237304    0001CGST -14 %On Accommodation              000000000000000161
002:   7888201905237305    0001SGST - 14 % On Accommodation            000000000000000171
002:   7889201905232040    0001The Square Breakfast Package            000000000000000181
002:   7890201905232042    0001The Square Dinner Package               000000000000000191
002:   7891201905232041    0001The Square Lunch Package                000000000000000201
002:   5284201905249999    0001Accommodation                           -00000423729000211
002:   5285201905249999    0001Accommodation Charge                    000000423729000220
002:   5286201905241001    0001Slab 1 Room Accomodation                000000423729000231
002:   5287201905247302    0001CGST - 9 % On Accommodation             000000038136000240
002:   5288201905247303    0001SGST - 9 % On Accommodation             000000038136000250
002:   5289201905247304    0001CGST -14 %On Accommodation              000000000000000261
002:   5290201905247305    0001SGST - 14 % On Accommodation            000000000000000271
002:   5291201905242040    0001The Square Breakfast Package            000000000000000281
002:   5292201905242042    0001The Square Dinner Package               000000000000000291
002:   5293201905242041    0001The Square Lunch Package                000000000000000301
002:   0805201905259999    0001Accommodation                           -00000423729000311
002:   0806201905259999    0001Accommodation Charge                    000000423729000320
002:   0807201905251001    0001Slab 1 Room Accomodation                000000423729000331
002:   0808201905257302    0001CGST - 9 % On Accommodation             000000038136000340
002:   0809201905257303    0001SGST - 9 % On Accommodation             000000038136000350
002:   0810201905257304    0001CGST -14 %On Accommodation              000000000000000361
002:   0811201905257305    0001SGST - 14 % On Accommodation            000000000000000371
002:   0812201905252040    0001The Square Breakfast Package            000000000000000381
002:   0813201905252042    0001The Square Dinner Package               000000000000000391
002:   0814201905252041    0001The Square Lunch Package                000000000000000401
002:   7377201905269999    0001Accommodation                           -00000423729000411
002:   7378201905269999    0001Accommodation Charge                    000000423729000420
002:   7379201905261001    0001Slab 1 Room Accomodation                000000423729000431
002:   7380201905267302    0001CGST - 9 % On Accommodation             000000038136000440
002:   7381201905267303    0001SGST - 9 % On Accommodation             000000038136000450
002:   7382201905267304    0001CGST -14 %On Accommodation              000000000000000461
002:   7383201905267305    0001SGST - 14 % On Accommodation            000000000000000471
002:   7384201905262040    0001The Square Breakfast Package            000000000000000481
002:   7385201905262042    0001The Square Dinner Package               000000000000000491
002:   7386201905262041    0001The Square Lunch Package                000000000000000501
002:   3999201905279003    0001InterGlobe Aviation Limited("IndiGo")Cit-00002500005000510
003:00031211:58:0000000000000000000000000132808200051010005
001:H6687     TWBP00051620190522005201905270100Tamosha                                 Sinha                                                                                                                                                                      IN                                                        0000H6687I20190522S0000000000000000000000000000000000000010026755426INR20423729000000000CRW01           CRW01   INDCL                                        00031
002:   0109201905254005    0001Internet Access                         000000000000000011
003:00051609:15:0000000000000000000000000000000100001010005
001:H6687     TWBP00051620190522005201905270100Tamosha                                 Sinha                                                                                                                                                                      IN                                                        0000H6687I20190522S0000000000000000000000000000000013281420026755426INR20423729000000000CRW01           CRW01   INDCLInterGlobe Aviation Limited("IndiGo")   00032
002:   8928201905229999    0001Accommodation                           -00000540000000011
002:   8929201905229999    0001Accommodation Charge                    000000540000000020
002:   8930201905221001    0001Slab 1 Room Accomodation                000000240000000031
002:   8931201905227302    0001CGST - 9 % On Accommodation             000000048600000040
002:   8932201905227303    0001SGST - 9 % On Accommodation             000000048600000050
002:   8933201905227304    0001CGST -14 %On Accommodation              000000000000000061
002:   8934201905227305    0001SGST - 14 % On Accommodation            000000000000000071
002:   8935201905222040    0001The Square Breakfast Package            000000080000000081
002:   8936201905222042    0001The Square Dinner Package               000000120000000091
002:   8937201905222041    0001The Square Lunch Package                000000100000000101
002:   8898201905239999    0001Accommodation                           -00000540000000111
002:   8899201905239999    0001Accommodation Charge                    000000540000000120
002:   8900201905231001    0001Slab 1 Room Accomodation                000000240000000131
002:   8901201905237302    0001CGST - 9 % On Accommodation             000000048600000140
002:   8902201905237303    0001SGST - 9 % On Accommodation             000000048600000150
002:   8903201905237304    0001CGST -14 %On Accommodation              000000000000000161
002:   8904201905237305    0001SGST - 14 % On Accommodation            000000000000000171
002:   8905201905232040    0001The Square Breakfast Package            000000080000000181
002:   8906201905232042    0001The Square Dinner Package               000000120000000191
002:   8907201905232041    0001The Square Lunch Package                000000100000000201
002:   6036201905249999    0001Accommodation                           -00000540000000211
002:   6037201905249999    0001Accommodation Charge                    000000540000000220
002:   6038201905241001    0001Slab 1 Room Accomodation                000000240000000231
002:   6039201905247302    0001CGST - 9 % On Accommodation             000000048600000240
002:   6040201905247303    0001SGST - 9 % On Accommodation             000000048600000250
002:   6041201905247304    0001CGST -14 %On Accommodation              000000000000000261
002:   6042201905247305    0001SGST - 14 % On Accommodation            000000000000000271
002:   6043201905242040    0001The Square Breakfast Package            000000080000000281
002:   6044201905242042    0001The Square Dinner Package               000000120000000291
002:   6045201905242041    0001The Square Lunch Package                000000100000000301
002:   1625201905259999    0001Accommodation                           -00000423729000311
002:   1626201905259999    0001Accommodation Charge                    000000423729000320
002:   1627201905251001    0001Slab 1 Room Accomodation                000000273729000331
002:   1628201905257302    0001CGST - 9 % On Accommodation             000000038136000340
002:   1629201905257303    0001SGST - 9 % On Accommodation             000000038136000350
002:   1630201905257304    0001CGST -14 %On Accommodation              000000000000000361
002:   1631201905257305    0001SGST - 14 % On Accommodation            000000000000000371
002:   1632201905252040    0001The Square Breakfast Package            000000040000000381
002:   1633201905252042    0001The Square Dinner Package               000000060000000391
002:   1634201905252041    0001The Square Lunch Package                000000050000000401
002:   8204201905269999    0001Accommodation                           -00000423729000411
002:   8205201905269999    0001Accommodation Charge                    000000423729000420
002:   8206201905261001    0001Slab 1 Room Accomodation                000000273729000431
002:   8207201905267302    0001CGST - 9 % On Accommodation             000000038136000440
002:   8208201905267303    0001SGST - 9 % On Accommodation             000000038136000450
002:   8209201905267304    0001CGST -14 %On Accommodation              000000000000000461
002:   8210201905267305    0001SGST - 14 % On Accommodation            000000000000000471
002:   8211201905262040    0001The Square Breakfast Package            000000040000000481
002:   8212201905262042    0001The Square Dinner Package               000000060000000491
002:   8213201905262041    0001The Square Lunch Package                000000050000000501
002:   4159201905279003    0001InterGlobe Aviation Limited("IndiGo")Cit-00002911602000510
003:00051609:15:0000000000000000000000000132814200051010005
001:H6687     QEE 00062920190526001201905270300Girish                                  Maindarkar                              Parish Sparsh ,               Near Gore E N T Hospital      Mitra Nagar Latur             Latur                         MH413512   IN9960645415                                      HKDSGGNW0000H6687120190522T0FR0180810000000000000000000000013271420026759428INR20949500000000000FLRB1   EXP     FLRB1   000MC54050617736151350522                    00033
002:   8619201905269999    0001Accommodation                           -00000949500000011
002:   8620201905269999    0001Accommodation Charge                    000000949500000020
002:   8621201905261002    0001Slab 2 Room Accomodation                000000829500000031
002:   8622201905267304    0001CGST -14 %On Accommodation              000000132930000040
002:   8623201905267305    0001SGST - 14 % On Accommodation            000000132930000050
002:   8624201905267303    0001SGST - 9 % On Accommodation             000000000000000061
002:   8625201905267302    0001CGST - 9 % On Accommodation             000000000000000071
002:   8626201905262040    0001The Square Breakfast Package            000000120000000081
002:   9661201905279104    0001540506177361513505/22                   -00001215360000090
003:00062921:20:0000000000000000000000000132714200009010005
001:H6687     QEB 00011920190523004201905270100Myo Min                                 Aung                                    190,7 Floor , Botataung Zay   Street Block -2 , Pazundaung  Township,                     Yangon                                   MM9910812546                                              0000MyanmI20190523S0000000000000000000000000000000013276010026765937INR20423729000000000CRW02   BusinessCRW02   INDCL                                        00034
002:   9885201905244005    0001Internet Access                         000000000000000011
002:   8456201905253008    0001MiniBar Cholotes                        000000012000000020
002:   8457201905257316    0001CGST - 9 % MB Chocolate                 000000001080000030
002:   8458201905257317    0001SGST - 9 % MB Chocolate                 000000001080000040
002:   0675201905276923    0001AdjustmentMinibar Cholotes              -00000012000000050
002:   0676201905277316    0001CGST - 9 % MB Chocolate                 -00000001080000060
002:   0677201905277317    0001SGST - 9 % MB Chocolate                 -00000001080000070
003:00011922:26:0000000000000000000000000132760100007010005
001:H6687     QEB 00011920190523004201905270100Myo Min                                 Aung                                    190,7 Floor , Botataung Zay   Street Block -2 , Pazundaung  Township,                     Yangon                                   MM9910812546                                              0000MyanmI20190523S0000000000000000000000000000000013275920026765937INR20423729000000000CRW02   BusinessCRW02   INDCLInterGlobe Aviation Limited("IndiGo")   00035
002:   7480201905239999    0001Accommodation                           -00000423729000011
002:   7481201905239999    0001Accommodation Charge                    000000423729000020
002:   7482201905231001    0001Slab 1 Room Accomodation                000000273729000031
002:   7483201905237302    0001CGST - 9 % On Accommodation             000000038136000040
002:   7484201905237303    0001SGST - 9 % On Accommodation             000000038136000050
002:   7485201905237304    0001CGST -14 %On Accommodation              000000000000000061
002:   7486201905237305    0001SGST - 14 % On Accommodation            000000000000000071
002:   7487201905232040    0001The Square Breakfast Package            000000040000000081
002:   7488201905232041    0001The Square Lunch Package                000000050000000091
002:   7489201905232042    0001The Square Dinner Package               000000060000000101
002:   4995201905249999    0001Accommodation                           -00000423729000111
002:   4996201905249999    0001Accommodation Charge                    000000423729000120
002:   4997201905241001    0001Slab 1 Room Accomodation                000000273729000131
002:   4998201905247302    0001CGST - 9 % On Accommodation             000000038136000140
002:   4999201905247303    0001SGST - 9 % On Accommodation             000000038136000150
002:   5000201905247304    0001CGST -14 %On Accommodation              000000000000000161
002:   5001201905247305    0001SGST - 14 % On Accommodation            000000000000000171
002:   5002201905242040    0001The Square Breakfast Package            000000040000000181
002:   5003201905242041    0001The Square Lunch Package                000000050000000191
002:   5004201905242042    0001The Square Dinner Package               000000060000000201
002:   0439201905259999    0001Accommodation                           -00000423729000211
002:   0440201905259999    0001Accommodation Charge                    000000423729000220
002:   0441201905251001    0001Slab 1 Room Accomodation                000000273729000231
002:   0442201905257302    0001CGST - 9 % On Accommodation             000000038136000240
002:   0443201905257303    0001SGST - 9 % On Accommodation             000000038136000250
002:   0444201905257304    0001CGST -14 %On Accommodation              000000000000000261
002:   0445201905257305    0001SGST - 14 % On Accommodation            000000000000000271
002:   0446201905252040    0001The Square Breakfast Package            000000040000000281
002:   0447201905252041    0001The Square Lunch Package                000000050000000291
002:   0448201905252042    0001The Square Dinner Package               000000060000000301
002:   7006201905269999    0001Accommodation                           -00000423729000311
002:   7007201905269999    0001Accommodation Charge                    000000423729000320
002:   7008201905261001    0001Slab 1 Room Accomodation                000000273729000331
002:   7009201905267302    0001CGST - 9 % On Accommodation             000000038136000340
002:   7010201905267303    0001SGST - 9 % On Accommodation             000000038136000350
002:   7011201905267304    0001CGST -14 %On Accommodation              000000000000000361
002:   7012201905267305    0001SGST - 14 % On Accommodation            000000000000000371
002:   7013201905262040    0001The Square Breakfast Package            000000040000000381
002:   7014201905262041    0001The Square Lunch Package                000000050000000391
002:   7015201905262042    0001The Square Dinner Package               000000060000000401
002:   0674201905279003    0001InterGlobe Aviation Limited("IndiGo")Cit-00002000004000410
003:00011922:26:0000000000000000000000000132759200041010005
001:H6687     QEB 00023920190526001201905270100NG Cheng                                Tiang                                   9 Secoud Street               Singapore                     456327                                                                 SG+65 9183 7299                                   HKFSDZGN0000Malay320190523T0PC0290900000000000000000000000000000010026768425INR20600000000000000FLRA1   BusinessFLRA1   000MC                                        00036
002:   6464201905264005    0001Internet Access                         000000000000000011
003:00023923:59:0000000000000000000000000000000100001010005
001:H6687     QEB 00023920190526001201905270100NG Cheng                                Tiang                                   9 Secoud Street               Singapore                     456327                                                                 SG+65 9183 7299                                   HKFSDZGN0000Malay320190523T0PC0290900000000000000000000000013274120026768425INR20600000000000000FLRA1   BusinessFLRA1   000MC55695100052272691220                    00037
002:   7346201905261001    0001Accommodation Charges                   000000600000000010
002:   7347201905267302    0001CGST - 9 % On Accommodation             000000054000000020
002:   7348201905267303    0001SGST - 9 % On Accommodation             000000054000000030
002:   7349201905267304    0001CGST -14 %On Accommodation              000000000000000041
002:   7350201905267305    0001SGST - 14 % On Accommodation            000000000000000051
002:   0160201905272000    0001The Square Breakfast Food               000000170000000060
002:   0161201905277308    0001CGST - 9 % Square                       000000015300000070
002:   0162201905277309    0001SGST - 9 % Square                       000000015300000080
002:   0183201905278100    0001Balance Transfer Credit                 000000708000000090
002:   0401201905279104    0001556951000522726912/20                   -00001616600000100
003:00023923:59:0000000000000000000000000132741200010010005
001:H6687     QEB 00020920190526001201905270100Wenyu                                   Li                                      Suit 1004, Nanfung Tower      Shanghai                                                                                             CN+86 15901680745                                 HKFSDZGN0000China320190523T0PC0290900000000000000000000000013274020026768426INR20600000000000000FLRA1   BusinessFLRA1   000CA                                        00038
002:   7179201905261001    0001Accommodation Charges                   000000600000000010
002:   7180201905267302    0001CGST - 9 % On Accommodation             000000054000000020
002:   7181201905267303    0001SGST - 9 % On Accommodation             000000054000000030
002:   7182201905267304    0001CGST -14 %On Accommodation              000000000000000041
002:   7183201905267305    0001SGST - 14 % On Accommodation            000000000000000051
002:   0182201905278100    0001Balance Transfer Credit                 -00000708000000060
003:00020923:59:0000000000000000000000000132740200006010005
001:H6687     QEB 00047720190526001201905270200Ashok M                                 Doshi                                   Oxford Grammer School         Himayat Nagar                                               Hyderabad                       500029   IN+91 9885031414                                  190526050000H6687I20190523P0000000000000000000000000000000013280520026768678INR20100000000000000DAF     WAP     DAF     000CLAccor advantage plus Marketing India Pvt00039
002:   8165201905261001    0001Accommodation Charge                    000000100000000010
002:   8166201905267302    0001CGST - 9 % On Accommodation             000000009000000020
002:   8167201905267303    0001SGST - 9 % On Accommodation             000000009000000030
002:   8168201905267304    0001CGST -14 %On Accommodation              000000000000000041
002:   8169201905267305    0001SGST - 14 % On Accommodation            000000000000000051
002:   3977201905279003    0001Accor advantage plus Marketing India Pvt-00000118000000060
003:00047721:54:0000000000000000000000000132805200006010005
001:H6687     QEB 00047720190526001201905270200Ashok M                                 Doshi                                   Oxford Grammer School         Himayat Nagar                                               Hyderabad                       500029   IN+91 9885031414                                  190526050000H6687I20190523P0000000000000000000000000000000013280430026768678INR20100000000000000DAF     WAP     DAF     000CA                                        00040
002:   6077201905268100    0001Balance Transfer Credit                 000000450000000010
002:   3972201905279000    0001Cash                                    -00000450000000020
003:00047721:54:0000000000000000000000000132804300002010005
001:H6687     QEB 00047520190526001201905270200Mukesh                                  Kamdar                                  5-8-57/A Nampally             Station Road                                                Hyderabad                     AP500001   IN+91 9391047581                                  190526050000H6687I20190523P0000000000000000000000000000000013280620026769175INR20100000000000000DAF     WAP     DAF     000CLAccor advantage plus Marketing India Pvt00041
002:   8141201905261001    0001Accommodation Charge                    000000100000000010
002:   8142201905267302    0001CGST - 9 % On Accommodation             000000009000000020
002:   8143201905267303    0001SGST - 9 % On Accommodation             000000009000000030
002:   8144201905267304    0001CGST -14 %On Accommodation              000000000000000041
002:   8145201905267305    0001SGST - 14 % On Accommodation            000000000000000051
002:   3978201905279003    0001Accor advantage plus Marketing India Pvt-00000118000000060
003:00047521:53:0000000000000000000000000132806200006010005
001:H6687     QEB 00047520190526001201905270200Mukesh                                  Kamdar                                  5-8-57/A Nampally             Station Road                                                Hyderabad                     AP500001   IN+91 9391047581                                  190526050000H6687I20190523P0000000000000000000000000000000013280330026769175INR20100000000000000DAF     WAP     DAF     000CA                                        00042
002:   6083201905268100    0001Balance Transfer Credit                 000000450000000010
002:   0682201905272110    0001IRD Breakfast Food                      000000018000000020
002:   0683201905277306    0001CGST - 9 %  IRD                         000000001620000030
002:   0684201905277307    0001SGST - 9 % IRD                          000000001620000040
002:   3971201905279000    0001Cash                                    -00000471240000050
003:00047521:53:0000000000000000000000000132803300005010005
001:H6687     QEBP00032020190526001201905270100Avtar                                   Singh                                   C-16 LANE 01 NEAR PEOPLE SCHOOmumbai                                                      Mumbai                        MH400614   IN+91 9820142436                                  HKFSFMXT0000H6687C20190523T0960307600000000000000000000000000000010026769675INR20617373000000000FLMRB1  INF     FLMRB1  000MC                                        00043
002:   5956201905264005    0001Internet Access                         000000000000000011
003:00032009:04:0000000000000000000000000000000100001010005
001:H6687     QEBP00032020190526001201905270100Avtar                                   Singh                                   C-16 LANE 01 NEAR PEOPLE SCHOOmumbai                                                      Mumbai                        MH400614   IN+91 9820142436                                  HKFSFMXT0000H6687C20190523T0960307600000000000000000000000013271620026769675INR20617373000000000FLMRB1  INF     FLMRB1  000MC52627310734637070619                    00044
002:   7447201905269999    0001Accommodation                           -00000617373000011
002:   7448201905269999    0001Accommodation Charges                   000000617373000020
002:   7449201905261001    0001Slab 1 Room Accomodation                000000577373000031
002:   7450201905267302    0001CGST - 9 % On Accommodation             000000055564000040
002:   7451201905267303    0001SGST - 9 % On Accommodation             000000055564000050
002:   7452201905267304    0001CGST -14 %On Accommodation              000000000000000061
002:   7453201905267305    0001SGST - 14 % On Accommodation            000000000000000071
002:   7454201905262040    0001The Square Breakfast Package            000000040000000081
002:   9671201905279104    0001526273107346370706/19                   -00000728501000090
003:00032009:04:0000000000000000000000000132716200009010005
001:H6687     QEBP00032020190526001201905270100Avtar                                   Singh                                   C-16 LANE 01 NEAR PEOPLE SCHOOmumbai                                                      Mumbai                        MH400614   IN+91 9820142436                                  HKFSFMXT0000H6687C20190523T0960307600000000000000000000000013271730026769675INR20617373000000000FLMRB1  INF     FLMRB1  000CA                                        00045
002:   5755201905269000    0001Cash                                    -00000200000000010
002:   9667201905278000    0001Paid Out                                000000200000000020
003:00032009:04:0000000000000000000000000132717300002010005
001:H6687     QEBP00032020190526001201905270100Avtar                                   Singh                                   C-16 LANE 01 NEAR PEOPLE SCHOOmumbai                                                      Mumbai                        MH400614   IN+91 9820142436                                  HKFSFMXT0000H6687C20190523T0960307600000000000000000000000013276840026769675INR20617373000000000FLMRB1  INF     FLMRB1  000VA43755163935270190322                    00046
002:   9662201905273000    0001Minibar Food                            000000012000000010
002:   9663201905277314    0001CGST - 6 % MB Namkeens                  000000000720000020
002:   9664201905277315    0001SGST - 6 % MB Namkeens                  000000000720000030
002:   9668201905275218    0001Transport Charges                       000000050000000040
002:   9669201905277347    0001CGST - 6% Transportation                000000003000000050
002:   9670201905277348    0001SGST - 6 %  Transportation              000000003000000060
002:   0731201905279100    0001437551639352701903/22                   -00000069440000070
003:00032009:04:0000000000000000000000000132768400007010005
001:H6687     QEBP00045420190526001201905270100Sary El                                 Houssamy                                highway Beirut Al- Lebanon Al                                                             Beirut                                   LB+919820142436                                   HKFSFMXV0000LebanC20190523T0960307600000000000000000000000013271820026769676INR20617373000000000FLMRB1  b       FLMRB1  000MC52627310734637070619                    00047
002:   8033201905269999    0001Accommodation                           -00000617373000011
002:   8034201905269999    0001Accommodation Charges                   000000617373000020
002:   8035201905261001    0001Slab 1 Room Accomodation                000000577373000031
002:   8036201905267302    0001CGST - 9 % On Accommodation             000000055564000040
002:   8037201905267303    0001SGST - 9 % On Accommodation             000000055564000050
002:   8038201905267304    0001CGST -14 %On Accommodation              000000000000000061
002:   8039201905267305    0001SGST - 14 % On Accommodation            000000000000000071
002:   8040201905262040    0001The Square Breakfast Package            000000040000000081
002:   9672201905279104    0001526273107346370706/19                   -00000728501000090
003:00045409:25:0000000000000000000000000132718200009010005
001:H6687     QEBP00045420190526001201905270100Sary El                                 Houssamy                                highway Beirut Al- Lebanon Al                                                             Beirut                                   LB+919820142436                                   HKFSFMXV0000LebanC20190523T0960307600000000000000000000000013271930026769676INR20617373000000000FLMRB1  b       FLMRB1  000CA                                        00048
002:   5754201905269000    0001Cash                                    -00000200000000010
002:   9666201905278000    0001Paid Out                                000000200000000020
003:00045409:25:0000000000000000000000000132719300002010005
001:H6687     QEBP00045420190526001201905270100Sary El                                 Houssamy                                highway Beirut Al- Lebanon Al                                                             Beirut                                   LB+919820142436                                   HKFSFMXV0000LebanC20190523T0960307600000000000000000000000013276740026769676INR20617373000000000FLMRB1  b       FLMRB1  000VA43755163935270190322                    00049
002:   5943201905262400    0001The Square Dinner Food                  000000139900000010
002:   5944201905267308    0001CGST - 9 % Square                       000000012591000020
002:   5945201905267309    0001SGST - 9 % Square                       000000012591000030
002:   0730201905279100    0001437551639352701903/22                   -00000165082000040
003:00045409:25:0000000000000000000000000132767400004010005
001:H6687     QEB 00054720190524003201905270100PRASHANT                                HIRVE                                                                                                                                                                      IN9867655674                                              0000H6687I20190523S0000000000000000000000000000000000000010026770675INR20423729000000000CRW02           CRW02   INDCL                                        00050
002:   1900201905244005    0001Internet Access                         000000000000000011
003:00054714:45:0000000000000000000000000000000100001010005
001:H6687     QEB 00054720190524003201905270100PRASHANT                                HIRVE                                                                                                                                                                      IN9867655674                                              0000H6687I20190523S0000000000000000000000000000000013282320026770675INR20423729000000000CRW02           CRW02   INDCLInterGlobe Aviation Limited("IndiGo")   00051
002:   6249201905249999    0001Accommodation                           -00000423729000011
002:   6250201905249999    0001Accommodation Charge                    000000423729000020
002:   6251201905241001    0001Slab 1 Room Accomodation                000000273729000031
002:   6252201905247302    0001CGST - 9 % On Accommodation             000000038136000040
002:   6253201905247303    0001SGST - 9 % On Accommodation             000000038136000050
002:   6254201905247304    0001CGST -14 %On Accommodation              000000000000000061
002:   6255201905247305    0001SGST - 14 % On Accommodation            000000000000000071
002:   6256201905242040    0001The Square Breakfast Package            000000040000000081
002:   6257201905242041    0001The Square Lunch Package                000000050000000091
002:   6258201905242042    0001The Square Dinner Package               000000060000000101
002:   1872201905259999    0001Accommodation                           -00000423729000111
002:   1873201905259999    0001Accommodation Charge                    000000423729000120
002:   1874201905251001    0001Slab 1 Room Accomodation                000000273729000131
002:   1875201905257302    0001CGST - 9 % On Accommodation             000000038136000140
002:   1876201905257303    0001SGST - 9 % On Accommodation             000000038136000150
002:   1877201905257304    0001CGST -14 %On Accommodation              000000000000000161
002:   1878201905257305    0001SGST - 14 % On Accommodation            000000000000000171
002:   1879201905252040    0001The Square Breakfast Package            000000040000000181
002:   1880201905252041    0001The Square Lunch Package                000000050000000191
002:   1881201905252042    0001The Square Dinner Package               000000060000000201
002:   8381201905269999    0001Accommodation                           -00000423729000211
002:   8382201905269999    0001Accommodation Charge                    000000423729000220
002:   8383201905261001    0001Slab 1 Room Accomodation                000000273729000231
002:   8384201905267302    0001CGST - 9 % On Accommodation             000000038136000240
002:   8385201905267303    0001SGST - 9 % On Accommodation             000000038136000250
002:   8386201905267304    0001CGST -14 %On Accommodation              000000000000000261
002:   8387201905267305    0001SGST - 14 % On Accommodation            000000000000000271
002:   8388201905262040    0001The Square Breakfast Package            000000040000000281
002:   8389201905262041    0001The Square Lunch Package                000000050000000291
002:   8390201905262042    0001The Square Dinner Package               000000060000000301
002:   4433201905279003    0001InterGlobe Aviation Limited("IndiGo")Cit-00001500003000310
003:00054714:45:0000000000000000000000000132823200031010005
001:H6687     QEB 00047620190525002201905270200Mukund                                  Kamdar                                  3-4-495 Flat #101 Highland    Apartment Barkatpura                                        Hyderbad Ap                     500027   IN+91 9848040085                                  HKFSFZZP0000H6687I20190523P0000000000000000000000000000000013280720026771175INR20381356000000000ADWKP   55R     ADWKP   000CA                                        00052
002:   1550201905259999    0001Accommodation                           -00000381356000011
002:   1551201905259999    0001Accommodation Charge                    000000381356000020
002:   1552201905251001    0001Slab 1 Room Accomodation                000000181356000031
002:   1553201905257302    0001CGST - 9 % On Accommodation             000000034322000040
002:   1554201905257303    0001SGST - 9 % On Accommodation             000000034322000050
002:   1555201905257304    0001CGST -14 %On Accommodation              000000000000000061
002:   1556201905257305    0001SGST - 14 % On Accommodation            000000000000000071
002:   1557201905252040    0001The Square Breakfast Package            000000080000000081
002:   1558201905252042    0001The Square Dinner Package               000000120000000091
002:   8156201905269999    0001Accommodation                           -00000381356000101
002:   8157201905269999    0001Accommodation Charge                    000000381356000110
002:   8158201905261001    0001Slab 1 Room Accomodation                000000181356000121
002:   8159201905267302    0001CGST - 9 % On Accommodation             000000034322000130
002:   8160201905267303    0001SGST - 9 % On Accommodation             000000034322000140
002:   8161201905267304    0001CGST -14 %On Accommodation              000000000000000151
002:   8162201905267305    0001SGST - 14 % On Accommodation            000000000000000161
002:   8163201905262040    0001The Square Breakfast Package            000000080000000171
002:   8164201905262042    0001The Square Dinner Package               000000120000000181
002:   3987201905278100    0001Balance Transfer Credit                 -00000900000000190
003:00047617:09:0000000000000000000000000132807200019010005
001:H6687     QEB 00034920190524003201905270100NAKHUL VINOD                            NAIR                                                                                                                                                                       IN                                                        0000H6687I20190523S0000000000000000000000000000000000000010026774175INR20423729000000000CRW02           CRW02   INDCL                                        00053
002:   4650201905244005    0001Internet Access                         000000000000000011
003:00034912:40:0000000000000000000000000000000100001010005
001:H6687     QEB 00034920190524003201905270100NAKHUL VINOD                            NAIR                                                                                                                                                                       IN                                                        0000H6687I20190523S0000000000000000000000000000000013276120026774175INR20423729000000000CRW02           CRW02   INDCLInterGlobe Aviation Limited("IndiGo")   00054
002:   5502201905249999    0001Accommodation                           -00000423729000011
002:   5503201905249999    0001Accommodation Charge                    000000423729000020
002:   5504201905241001    0001Slab 1 Room Accomodation                000000273729000031
002:   5505201905247302    0001CGST - 9 % On Accommodation             000000038136000040
002:   5506201905247303    0001SGST - 9 % On Accommodation             000000038136000050
002:   5507201905247304    0001CGST -14 %On Accommodation              000000000000000061
002:   5508201905247305    0001SGST - 14 % On Accommodation            000000000000000071
002:   5509201905242040    0001The Square Breakfast Package            000000040000000081
002:   5510201905242041    0001The Square Lunch Package                000000050000000091
002:   5511201905242042    0001The Square Dinner Package               000000060000000101
002:   1047201905259999    0001Accommodation                           -00000423729000111
002:   1048201905259999    0001Accommodation Charge                    000000423729000120
002:   1049201905251001    0001Slab 1 Room Accomodation                000000273729000131
002:   1050201905257302    0001CGST - 9 % On Accommodation             000000038136000140
002:   1051201905257303    0001SGST - 9 % On Accommodation             000000038136000150
002:   1052201905257304    0001CGST -14 %On Accommodation              000000000000000161
002:   1053201905257305    0001SGST - 14 % On Accommodation            000000000000000171
002:   1054201905252040    0001The Square Breakfast Package            000000040000000181
002:   1055201905252041    0001The Square Lunch Package                000000050000000191
002:   1056201905252042    0001The Square Dinner Package               000000060000000201
002:   7602201905269999    0001Accommodation                           -00000423729000211
002:   7603201905269999    0001Accommodation Charge                    000000423729000220
002:   7604201905261001    0001Slab 1 Room Accomodation                000000273729000231
002:   7605201905267302    0001CGST - 9 % On Accommodation             000000038136000240
002:   7606201905267303    0001SGST - 9 % On Accommodation             000000038136000250
002:   7607201905267304    0001CGST -14 %On Accommodation              000000000000000261
002:   7608201905267305    0001SGST - 14 % On Accommodation            000000000000000271
002:   7609201905262040    0001The Square Breakfast Package            000000040000000281
002:   7610201905262041    0001The Square Lunch Package                000000050000000291
002:   7611201905262042    0001The Square Dinner Package               000000060000000301
002:   0681201905279003    0001InterGlobe Aviation Limited("IndiGo")Cit-00001500003000310
003:00034912:40:0000000000000000000000000132761200031010005
001:H6687     QEB 00010920190526001201905270200Nina                                    Narasimhadevara                         11-4-8,Prabhakar Street       Ramarao Peta,Kakinada                                                                                IN9030546332                                      HKFSJRQH0000H6687220190523T0PC0290900000000000000000000000013279010026779175INR20700000000000000FLRA1   BKG     FLRA1   000VA46401820804012620422                    00055
002:   5025201905269100    0001464018208040126204/22                   -00000826000000010
002:   6913201905261001    0001Accommodation Charges                   000000700000000020
002:   6914201905267302    0001CGST - 9 % On Accommodation             000000063000000030
002:   6915201905267303    0001SGST - 9 % On Accommodation             000000063000000040
002:   6916201905267304    0001CGST -14 %On Accommodation              000000000000000051
002:   6917201905267305    0001SGST - 14 % On Accommodation            000000000000000061
003:00010915:29:0000000000000000000000000132790100006010005
001:H6687     QEB 00036420190526001201905270100Saurabh                                 Bajaj                                   Proterra Investment Partners 1#16-01 Capitagreen                                          Singapore                       048946   IN+91 9818813400                                  190526050000H6687I20190524T0000000000000000000000000000000000000010026780690INR20600000000000000RA1     INT     RA1     000AX                                        00056
002:   6426201905264005    0001Internet Access                         000000000000000011
003:00036423:59:0000000000000000000000000000000100001010005
001:H6687     QEB 00036420190526001201905270100Saurabh                                 Bajaj                                   Proterra Investment Partners 1#16-01 Capitagreen                                          Singapore                       048946   IN+91 9818813400                                  190526050000H6687I20190524T0000000000000000000000000000000013277220026780690INR20600000000000000RA1     INT     RA1     000AX3762222020510051222                     00057
002:   7723201905261001    0001Accommodation Charges                   000000600000000010
002:   7724201905267302    0001CGST - 9 % On Accommodation             000000054000000020
002:   7725201905267303    0001SGST - 9 % On Accommodation             000000054000000030
002:   7726201905267304    0001CGST -14 %On Accommodation              000000000000000041
002:   7727201905267305    0001SGST - 14 % On Accommodation            000000000000000051
002:   0751201905279102    000137622220205100512/22                    -00000708000000060
003:00036423:59:0000000000000000000000000132772200006010005
001:H6687     QEB 00024220190524003201905270100KIRAN                                   MANDALAPU                                                                                                                                                                  IN                                                        0000H6687I20190524S0000000000000000000000000000000000000010026781438INR20423729000000000CRW02           CRW02   INDCL                                        00058
002:   2904201905244005    0001Internet Access                         000000000000000011
003:00024217:15:0000000000000000000000000000000100001010005
001:H6687     QEB 00024220190524003201905270100KIRAN                                   MANDALAPU                                                                                                                                                                  IN                                                        0000H6687I20190524S0000000000000000000000000000000013276220026781438INR20423729000000000CRW02           CRW02   INDCLInterGlobe Aviation Limited("IndiGo")   00059
002:   5258201905249999    0001Accommodation                           -00000423729000011
002:   5259201905249999    0001Accommodation Charge                    000000423729000020
002:   5260201905241001    0001Slab 1 Room Accomodation                000000273729000031
002:   5261201905247302    0001CGST - 9 % On Accommodation             000000038136000040
002:   5262201905247303    0001SGST - 9 % On Accommodation             000000038136000050
002:   5263201905247304    0001CGST -14 %On Accommodation              000000000000000061
002:   5264201905247305    0001SGST - 14 % On Accommodation            000000000000000071
002:   5265201905242040    0001The Square Breakfast Package            000000040000000081
002:   5266201905242041    0001The Square Lunch Package                000000050000000091
002:   5267201905242042    0001The Square Dinner Package               000000060000000101
002:   0779201905259999    0001Accommodation                           -00000423729000111
002:   0780201905259999    0001Accommodation Charge                    000000423729000120
002:   0781201905251001    0001Slab 1 Room Accomodation                000000273729000131
002:   0782201905257302    0001CGST - 9 % On Accommodation             000000038136000140
002:   0783201905257303    0001SGST - 9 % On Accommodation             000000038136000150
002:   0784201905257304    0001CGST -14 %On Accommodation              000000000000000161
002:   0785201905257305    0001SGST - 14 % On Accommodation            000000000000000171
002:   0786201905252040    0001The Square Breakfast Package            000000040000000181
002:   0787201905252041    0001The Square Lunch Package                000000050000000191
002:   0788201905252042    0001The Square Dinner Package               000000060000000201
002:   7367201905269999    0001Accommodation                           -00000423729000211
002:   7368201905269999    0001Accommodation Charge                    000000423729000220
002:   7369201905261001    0001Slab 1 Room Accomodation                000000273729000231
002:   7370201905267302    0001CGST - 9 % On Accommodation             000000038136000240
002:   7371201905267303    0001SGST - 9 % On Accommodation             000000038136000250
002:   7372201905267304    0001CGST -14 %On Accommodation              000000000000000261
002:   7373201905267305    0001SGST - 14 % On Accommodation            000000000000000271
002:   7374201905262040    0001The Square Breakfast Package            000000040000000281
002:   7375201905262041    0001The Square Lunch Package                000000050000000291
002:   7376201905262042    0001The Square Dinner Package               000000060000000301
002:   0690201905279003    0001InterGlobe Aviation Limited("IndiGo")Cit-00001500003000310
003:00024217:15:0000000000000000000000000132762200031010005
001:H6687     QEB 00014120190524003201905270100Kunsang                                 Dikey                                                                                                                                                                      IN9540070037                                              0000H6687I20190524S0000000000000000000000000000000000000010026781446INR20423729000000000CRW01           CRW01   INDCL                                        00060
002:   2985201905244005    0001Internet Access                         000000000000000011
003:00014117:12:0000000000000000000000000000000100001010005
001:H6687     QEB 00014120190524003201905270100Kunsang                                 Dikey                                                                                                                                                                      IN9540070037                                              0000H6687I20190524S0000000000000000000000000000000013279420026781446INR20423729000000000CRW01           CRW01   INDCLInterGlobe Aviation Limited("IndiGo")   00061
002:   5109201905249999    0001Accommodation                           -00000423729000011
002:   5110201905249999    0001Accommodation Charge                    000000423729000020
002:   5111201905241001    0001Slab 1 Room Accomodation                000000273729000031
002:   5112201905247302    0001CGST - 9 % On Accommodation             000000038136000040
002:   5113201905247303    0001SGST - 9 % On Accommodation             000000038136000050
002:   5114201905247304    0001CGST -14 %On Accommodation              000000000000000061
002:   5115201905247305    0001SGST - 14 % On Accommodation            000000000000000071
002:   5116201905242040    0001The Square Breakfast Package            000000040000000081
002:   5117201905242042    0001The Square Dinner Package               000000060000000091
002:   5118201905242041    0001The Square Lunch Package                000000050000000101
002:   0568201905259999    0001Accommodation                           -00000423729000111
002:   0569201905259999    0001Accommodation Charge                    000000423729000120
002:   0570201905251001    0001Slab 1 Room Accomodation                000000273729000131
002:   0571201905257302    0001CGST - 9 % On Accommodation             000000038136000140
002:   0572201905257303    0001SGST - 9 % On Accommodation             000000038136000150
002:   0573201905257304    0001CGST -14 %On Accommodation              000000000000000161
002:   0574201905257305    0001SGST - 14 % On Accommodation            000000000000000171
002:   0575201905252040    0001The Square Breakfast Package            000000040000000181
002:   0576201905252042    0001The Square Dinner Package               000000060000000191
002:   0577201905252041    0001The Square Lunch Package                000000050000000201
002:   7161201905269999    0001Accommodation                           -00000423729000211
002:   7162201905269999    0001Accommodation Charge                    000000423729000220
002:   7163201905261001    0001Slab 1 Room Accomodation                000000273729000231
002:   7164201905267302    0001CGST - 9 % On Accommodation             000000038136000240
002:   7165201905267303    0001SGST - 9 % On Accommodation             000000038136000250
002:   7166201905267304    0001CGST -14 %On Accommodation              000000000000000261
002:   7167201905267305    0001SGST - 14 % On Accommodation            000000000000000271
002:   7168201905262040    0001The Square Breakfast Package            000000040000000281
002:   7169201905262042    0001The Square Dinner Package               000000060000000291
002:   7170201905262041    0001The Square Lunch Package                000000050000000301
002:   2408201905279003    0001InterGlobe Aviation Limited("IndiGo")Cit-00001500003000310
003:00014117:12:0000000000000000000000000132794200031010005
001:H6687     TWB 00011720190524003201905270200Yasodha                                 Pradhan                                                                                                                                                                    IN8348250913                                              0000H6687I20190524S0000000000000000000000000000000000000010026781447INR20540000000000000CRW01           CRW01   INDCL                                        00062
002:   3958201905244005    0001Internet Access                         000000000000000011
003:00011719:12:0000000000000000000000000000000100001010005
001:H6687     TWB 00011720190524003201905270200Yasodha                                 Pradhan                                                                                                                                                                    IN8348250913                                              0000H6687I20190524S0000000000000000000000000000000013282020026781447INR20540000000000000CRW01           CRW01   INDCLInterGlobe Aviation Limited("IndiGo")   00063
002:   4975201905249999    0001Accommodation                           -00000540000000011
002:   4976201905249999    0001Accommodation Charge                    000000540000000020
002:   4977201905241001    0001Slab 1 Room Accomodation                000000390000000031
002:   4978201905247302    0001CGST - 9 % On Accommodation             000000048600000040
002:   4979201905247303    0001SGST - 9 % On Accommodation             000000048600000050
002:   4980201905247304    0001CGST -14 %On Accommodation              000000000000000061
002:   4981201905247305    0001SGST - 14 % On Accommodation            000000000000000071
002:   4982201905242040    0001The Square Breakfast Package            000000040000000081
002:   4983201905242042    0001The Square Dinner Package               000000060000000091
002:   4984201905242041    0001The Square Lunch Package                000000050000000101
002:   0429201905259999    0001Accommodation                           -00000540000000111
002:   0430201905259999    0001Accommodation Charge                    000000540000000120
002:   0431201905251001    0001Slab 1 Room Accomodation                000000390000000131
002:   0432201905257302    0001CGST - 9 % On Accommodation             000000048600000140
002:   0433201905257303    0001SGST - 9 % On Accommodation             000000048600000150
002:   0434201905257304    0001CGST -14 %On Accommodation              000000000000000161
002:   0435201905257305    0001SGST - 14 % On Accommodation            000000000000000171
002:   0436201905252040    0001The Square Breakfast Package            000000040000000181
002:   0437201905252042    0001The Square Dinner Package               000000060000000191
002:   0438201905252041    0001The Square Lunch Package                000000050000000201
002:   6976201905269999    0001Accommodation                           -00000540000000211
002:   6977201905269999    0001Accommodation Charge                    000000540000000220
002:   6978201905261001    0001Slab 1 Room Accomodation                000000390000000231
002:   6979201905267302    0001CGST - 9 % On Accommodation             000000048600000240
002:   6980201905267303    0001SGST - 9 % On Accommodation             000000048600000250
002:   6981201905267304    0001CGST -14 %On Accommodation              000000000000000261
002:   6982201905267305    0001SGST - 14 % On Accommodation            000000000000000271
002:   6983201905262040    0001The Square Breakfast Package            000000040000000281
002:   6984201905262042    0001The Square Dinner Package               000000060000000291
002:   6985201905262041    0001The Square Lunch Package                000000050000000301
002:   4425201905279003    0001InterGlobe Aviation Limited("IndiGo")Cit-00001911600000310
003:00011719:12:0000000000000000000000000132820200031010005
001:H6687     TWB 00044320190524003201905270100Ritu Rani                               Shaw                                                                                                                                                                       IN                                                        0000H6687I20190524S0000000000000000000000000000000000000010026781448INR20423729000000000CRW01           CRW01   INDCL                                        00064
002:   3486201905244005    0001Internet Access                         000000000000000011
003:00044319:11:0000000000000000000000000000000100001010005
001:H6687     TWB 00044320190524003201905270100Ritu Rani                               Shaw                                                                                                                                                                       IN                                                        0000H6687I20190524S0000000000000000000000000000000013282120026781448INR20423729000000000CRW01           CRW01   INDCLInterGlobe Aviation Limited("IndiGo")   00065
002:   5767201905249999    0001Accommodation                           -00000540000000011
002:   5768201905249999    0001Accommodation Charge                    000000540000000020
002:   5769201905241001    0001Slab 1 Room Accomodation                000000390000000031
002:   5770201905247302    0001CGST - 9 % On Accommodation             000000048600000040
002:   5771201905247303    0001SGST - 9 % On Accommodation             000000048600000050
002:   5772201905247304    0001CGST -14 %On Accommodation              000000000000000061
002:   5773201905247305    0001SGST - 14 % On Accommodation            000000000000000071
002:   5774201905242040    0001The Square Breakfast Package            000000040000000081
002:   5775201905242042    0001The Square Dinner Package               000000060000000091
002:   5776201905242041    0001The Square Lunch Package                000000050000000101
002:   1355201905259999    0001Accommodation                           -00000423729000111
002:   1356201905259999    0001Accommodation Charge                    000000423729000120
002:   1357201905251001    0001Slab 1 Room Accomodation                000000423729000131
002:   1358201905257302    0001CGST - 9 % On Accommodation             000000038136000140
002:   1359201905257303    0001SGST - 9 % On Accommodation             000000038136000150
002:   1360201905257304    0001CGST -14 %On Accommodation              000000000000000161
002:   1361201905257305    0001SGST - 14 % On Accommodation            000000000000000171
002:   1362201905252040    0001The Square Breakfast Package            000000000000000181
002:   1363201905252042    0001The Square Dinner Package               000000000000000191
002:   1364201905252041    0001The Square Lunch Package                000000000000000201
002:   7930201905269999    0001Accommodation                           -00000423729000211
002:   7931201905269999    0001Accommodation Charge                    000000423729000220
002:   7932201905261001    0001Slab 1 Room Accomodation                000000423729000231
